{
  "contractName": "Exchange",
  "abi": [
    {
      "inputs": [],
      "name": "decimals",
      "outputs": [
        {
          "internalType": "uint256",
          "name": "",
          "type": "uint256"
        }
      ],
      "stateMutability": "view",
      "type": "function"
    },
    {
      "inputs": [],
      "name": "name",
      "outputs": [
        {
          "internalType": "string",
          "name": "",
          "type": "string"
        }
      ],
      "stateMutability": "view",
      "type": "function"
    },
    {
      "inputs": [],
      "name": "standard",
      "outputs": [
        {
          "internalType": "string",
          "name": "",
          "type": "string"
        }
      ],
      "stateMutability": "view",
      "type": "function"
    },
    {
      "inputs": [],
      "name": "symbol",
      "outputs": [
        {
          "internalType": "string",
          "name": "",
          "type": "string"
        }
      ],
      "stateMutability": "view",
      "type": "function"
    },
    {
      "inputs": [],
      "name": "totalSupply",
      "outputs": [
        {
          "internalType": "uint256",
          "name": "",
          "type": "uint256"
        }
      ],
      "stateMutability": "view",
      "type": "function"
    }
  ],
  "bytecode": "0x60806040526040518060400160405280600881526020017f45786368616e67650000000000000000000000000000000000000000000000008152506000908051906020019061004f9291906100ff565b506040518060400160405280600381526020017f4c434100000000000000000000000000000000000000000000000000000000008152506001908051906020019061009b9291906100ff565b506040518060400160405280600c81526020017f546f6b656e2076312e302e300000000000000000000000000000000000000000815250600290805190602001906100e79291906100ff565b5060126003553480156100f957600080fd5b50610203565b82805461010b906101d1565b90600052602060002090601f01602090048101928261012d5760008555610174565b82601f1061014657805160ff1916838001178555610174565b82800160010185558215610174579182015b82811115610173578251825591602001919060010190610158565b5b5090506101819190610185565b5090565b5b8082111561019e576000816000905550600101610186565b5090565b7f4e487b7100000000000000000000000000000000000000000000000000000000600052602260045260246000fd5b600060028204905060018216806101e957607f821691505b602082108114156101fd576101fc6101a2565b5b50919050565b61042e806102126000396000f3fe608060405234801561001057600080fd5b50600436106100575760003560e01c806306fdde031461005c57806318160ddd1461007a578063313ce567146100985780635a3b7e42146100b657806395d89b41146100d4575b600080fd5b6100646100f2565b6040516100719190610341565b60405180910390f35b610082610180565b60405161008f919061037c565b60405180910390f35b6100a0610186565b6040516100ad919061037c565b60405180910390f35b6100be61018c565b6040516100cb9190610341565b60405180910390f35b6100dc61021a565b6040516100e99190610341565b60405180910390f35b600080546100ff906103c6565b80601f016020809104026020016040519081016040528092919081815260200182805461012b906103c6565b80156101785780601f1061014d57610100808354040283529160200191610178565b820191906000526020600020905b81548152906001019060200180831161015b57829003601f168201915b505050505081565b60045481565b60035481565b60028054610199906103c6565b80601f01602080910402602001604051908101604052809291908181526020018280546101c5906103c6565b80156102125780601f106101e757610100808354040283529160200191610212565b820191906000526020600020905b8154815290600101906020018083116101f557829003601f168201915b505050505081565b60018054610227906103c6565b80601f0160208091040260200160405190810160405280929190818152602001828054610253906103c6565b80156102a05780601f10610275576101008083540402835291602001916102a0565b820191906000526020600020905b81548152906001019060200180831161028357829003601f168201915b505050505081565b600081519050919050565b600082825260208201905092915050565b60005b838110156102e25780820151818401526020810190506102c7565b838111156102f1576000848401525b50505050565b6000601f19601f8301169050919050565b6000610313826102a8565b61031d81856102b3565b935061032d8185602086016102c4565b610336816102f7565b840191505092915050565b6000602082019050818103600083015261035b8184610308565b905092915050565b6000819050919050565b61037681610363565b82525050565b6000602082019050610391600083018461036d565b92915050565b7f4e487b7100000000000000000000000000000000000000000000000000000000600052602260045260246000fd5b600060028204905060018216806103de57607f821691505b602082108114156103f2576103f1610397565b5b5091905056fea2646970667358221220ca4e04f09655c3c24ed62e45ead2f140935a5b58be19aaee065bf22e290ae19c64736f6c634300080a0033",
  "immutableReferences": {},
  "source": "pragma solidity ^0.8.0;\n\ncontract Exchange {\n\n    string public name = \"Exchange\";\n    string public symbol = \"LCA\";\n    string public standard = \"Token v1.0.0\";\n    uint256 public decimals = 18;\n    uint256 public totalSupply;\n\n}\n\n//to do\n\n// deposit ether\n// withdraw ether\n// deposit ether\n// deposit tokens\n// check balance\n// make order\n//cancel order\n// fill order\n// charge fees",
  "sourcePath": "/Users/petersarll/Desktop/dapp/dapp/src/contracts/Exchange.sol",
  "compiler": {
    "name": "solc",
    "version": "0.8.10+commit.fc410830.Emscripten.clang"
  },
  "schemaVersion": "3.4.4",
  "updatedAt": "2022-01-15T21:40:03.489Z",
  "devdoc": {
    "kind": "dev",
    "methods": {},
    "version": 1
  },
  "userdoc": {
    "kind": "user",
    "methods": {},
    "version": 1
  }
}