{
  "contractName": "Token",
  "abi": [
    {
      "inputs": [],
      "name": "name",
      "outputs": [
        {
          "internalType": "string",
          "name": "",
          "type": "string"
        }
      ],
      "stateMutability": "view",
      "type": "function",
      "constant": true
    },
    {
      "inputs": [],
      "name": "standard",
      "outputs": [
        {
          "internalType": "string",
          "name": "",
          "type": "string"
        }
      ],
      "stateMutability": "view",
      "type": "function",
      "constant": true
    },
    {
      "inputs": [],
      "name": "symbol",
      "outputs": [
        {
          "internalType": "string",
          "name": "",
          "type": "string"
        }
      ],
      "stateMutability": "view",
      "type": "function",
      "constant": true
    },
    {
      "inputs": [],
      "name": "totalSupply",
      "outputs": [
        {
          "internalType": "uint256",
          "name": "",
          "type": "uint256"
        }
      ],
      "stateMutability": "view",
      "type": "function",
      "constant": true
    }
  ],
  "bytecode": "0x60806040526040518060400160405280600581526020017f546f6b656e0000000000000000000000000000000000000000000000000000008152506000908051906020019061004f9291906100fa565b506040518060400160405280600381526020017f4c434100000000000000000000000000000000000000000000000000000000008152506001908051906020019061009b9291906100fa565b506040518060400160405280600c81526020017f546f6b656e2076312e302e300000000000000000000000000000000000000000815250600290805190602001906100e79291906100fa565b503480156100f457600080fd5b506101fe565b828054610106906101cc565b90600052602060002090601f016020900481019282610128576000855561016f565b82601f1061014157805160ff191683800117855561016f565b8280016001018555821561016f579182015b8281111561016e578251825591602001919060010190610153565b5b50905061017c9190610180565b5090565b5b80821115610199576000816000905550600101610181565b5090565b7f4e487b7100000000000000000000000000000000000000000000000000000000600052602260045260246000fd5b600060028204905060018216806101e457607f821691505b602082108114156101f8576101f761019d565b5b50919050565b6103ff8061020d6000396000f3fe608060405234801561001057600080fd5b506004361061004c5760003560e01c806306fdde031461005157806318160ddd1461006f5780635a3b7e421461008d57806395d89b41146100ab575b600080fd5b6100596100c9565b6040516100669190610312565b60405180910390f35b610077610157565b604051610084919061034d565b60405180910390f35b61009561015d565b6040516100a29190610312565b60405180910390f35b6100b36101eb565b6040516100c09190610312565b60405180910390f35b600080546100d690610397565b80601f016020809104026020016040519081016040528092919081815260200182805461010290610397565b801561014f5780601f106101245761010080835404028352916020019161014f565b820191906000526020600020905b81548152906001019060200180831161013257829003601f168201915b505050505081565b60035481565b6002805461016a90610397565b80601f016020809104026020016040519081016040528092919081815260200182805461019690610397565b80156101e35780601f106101b8576101008083540402835291602001916101e3565b820191906000526020600020905b8154815290600101906020018083116101c657829003601f168201915b505050505081565b600180546101f890610397565b80601f016020809104026020016040519081016040528092919081815260200182805461022490610397565b80156102715780601f1061024657610100808354040283529160200191610271565b820191906000526020600020905b81548152906001019060200180831161025457829003601f168201915b505050505081565b600081519050919050565b600082825260208201905092915050565b60005b838110156102b3578082015181840152602081019050610298565b838111156102c2576000848401525b50505050565b6000601f19601f8301169050919050565b60006102e482610279565b6102ee8185610284565b93506102fe818560208601610295565b610307816102c8565b840191505092915050565b6000602082019050818103600083015261032c81846102d9565b905092915050565b6000819050919050565b61034781610334565b82525050565b6000602082019050610362600083018461033e565b92915050565b7f4e487b7100000000000000000000000000000000000000000000000000000000600052602260045260246000fd5b600060028204905060018216806103af57607f821691505b602082108114156103c3576103c2610368565b5b5091905056fea2646970667358221220fcc7fd738ae2623a5a8fa6fa312ed5cd269be65fce5def9e403138642321c71564736f6c634300080a0033",
  "immutableReferences": {},
  "source": "// SPDX-License-Identifier: MIT\npragma solidity ^0.8.0;\n\ncontract Token {\n    \n    string public name = \"Token\";\n    string public symbol = \"LCA\";\n    string public standard = \"Token v1.0.0\";\n    uint256 public totalSupply;\n\n\n}",
  "sourcePath": "/Users/petersarll/Desktop/dapp/dapp/src/contracts/Token.sol",
  "compiler": {
    "name": "solc",
    "version": "0.8.10+commit.fc410830.Emscripten.clang"
  },
  "schemaVersion": "3.4.4",
  "updatedAt": "2021-12-29T05:47:34.679Z",
  "networkType": "ethereum",
  "devdoc": {
    "kind": "dev",
    "methods": {},
    "version": 1
  },
  "userdoc": {
    "kind": "user",
    "methods": {},
    "version": 1
  }
}